{
  "_format": "hh-sol-artifact-1",
  "contractName": "Domain",
  "sourceName": "contracts/Domain.sol",
  "abi": [
    {
      "inputs": [
        {
          "internalType": "string",
          "name": "_name",
          "type": "string"
        },
        {
          "internalType": "string",
          "name": "_symbol",
          "type": "string"
        }
      ],
      "stateMutability": "nonpayable",
      "type": "constructor"
    },
    {
      "anonymous": false,
      "inputs": [
        {
          "indexed": true,
          "internalType": "address",
          "name": "owner",
          "type": "address"
        },
        {
          "indexed": true,
          "internalType": "address",
          "name": "approved",
          "type": "address"
        },
        {
          "indexed": true,
          "internalType": "uint256",
          "name": "tokenId",
          "type": "uint256"
        }
      ],
      "name": "Approval",
      "type": "event"
    },
    {
      "anonymous": false,
      "inputs": [
        {
          "indexed": true,
          "internalType": "address",
          "name": "owner",
          "type": "address"
        },
        {
          "indexed": true,
          "internalType": "address",
          "name": "operator",
          "type": "address"
        },
        {
          "indexed": false,
          "internalType": "bool",
          "name": "approved",
          "type": "bool"
        }
      ],
      "name": "ApprovalForAll",
      "type": "event"
    },
    {
      "anonymous": false,
      "inputs": [
        {
          "indexed": true,
          "internalType": "address",
          "name": "from",
          "type": "address"
        },
        {
          "indexed": true,
          "internalType": "address",
          "name": "to",
          "type": "address"
        },
        {
          "indexed": true,
          "internalType": "uint256",
          "name": "tokenId",
          "type": "uint256"
        }
      ],
      "name": "Transfer",
      "type": "event"
    },
    {
      "inputs": [
        {
          "internalType": "address",
          "name": "to",
          "type": "address"
        },
        {
          "internalType": "uint256",
          "name": "tokenId",
          "type": "uint256"
        }
      ],
      "name": "approve",
      "outputs": [],
      "stateMutability": "nonpayable",
      "type": "function"
    },
    {
      "inputs": [
        {
          "internalType": "address",
          "name": "owner",
          "type": "address"
        }
      ],
      "name": "balanceOf",
      "outputs": [
        {
          "internalType": "uint256",
          "name": "",
          "type": "uint256"
        }
      ],
      "stateMutability": "view",
      "type": "function"
    },
    {
      "inputs": [
        {
          "internalType": "uint256",
          "name": "tokenId",
          "type": "uint256"
        }
      ],
      "name": "getApproved",
      "outputs": [
        {
          "internalType": "address",
          "name": "",
          "type": "address"
        }
      ],
      "stateMutability": "view",
      "type": "function"
    },
    {
      "inputs": [],
      "name": "getBalance",
      "outputs": [
        {
          "internalType": "uint256",
          "name": "",
          "type": "uint256"
        }
      ],
      "stateMutability": "view",
      "type": "function"
    },
    {
      "inputs": [
        {
          "internalType": "uint256",
          "name": "_id",
          "type": "uint256"
        }
      ],
      "name": "getDomain",
      "outputs": [
        {
          "components": [
            {
              "internalType": "string",
              "name": "name",
              "type": "string"
            },
            {
              "internalType": "uint256",
              "name": "cost",
              "type": "uint256"
            },
            {
              "internalType": "bool",
              "name": "isOwned",
              "type": "bool"
            }
          ],
          "internalType": "struct Domain.DomainNames",
          "name": "",
          "type": "tuple"
        }
      ],
      "stateMutability": "view",
      "type": "function"
    },
    {
      "inputs": [
        {
          "internalType": "address",
          "name": "owner",
          "type": "address"
        },
        {
          "internalType": "address",
          "name": "operator",
          "type": "address"
        }
      ],
      "name": "isApprovedForAll",
      "outputs": [
        {
          "internalType": "bool",
          "name": "",
          "type": "bool"
        }
      ],
      "stateMutability": "view",
      "type": "function"
    },
    {
      "inputs": [
        {
          "internalType": "string",
          "name": "_name",
          "type": "string"
        },
        {
          "internalType": "uint256",
          "name": "_cost",
          "type": "uint256"
        }
      ],
      "name": "list",
      "outputs": [],
      "stateMutability": "nonpayable",
      "type": "function"
    },
    {
      "inputs": [],
      "name": "maxSupply",
      "outputs": [
        {
          "internalType": "uint256",
          "name": "",
          "type": "uint256"
        }
      ],
      "stateMutability": "view",
      "type": "function"
    },
    {
      "inputs": [
        {
          "internalType": "uint256",
          "name": "_id",
          "type": "uint256"
        }
      ],
      "name": "mint",
      "outputs": [],
      "stateMutability": "payable",
      "type": "function"
    },
    {
      "inputs": [],
      "name": "name",
      "outputs": [
        {
          "internalType": "string",
          "name": "",
          "type": "string"
        }
      ],
      "stateMutability": "view",
      "type": "function"
    },
    {
      "inputs": [],
      "name": "owner",
      "outputs": [
        {
          "internalType": "address",
          "name": "",
          "type": "address"
        }
      ],
      "stateMutability": "view",
      "type": "function"
    },
    {
      "inputs": [
        {
          "internalType": "uint256",
          "name": "tokenId",
          "type": "uint256"
        }
      ],
      "name": "ownerOf",
      "outputs": [
        {
          "internalType": "address",
          "name": "",
          "type": "address"
        }
      ],
      "stateMutability": "view",
      "type": "function"
    },
    {
      "inputs": [
        {
          "internalType": "address",
          "name": "from",
          "type": "address"
        },
        {
          "internalType": "address",
          "name": "to",
          "type": "address"
        },
        {
          "internalType": "uint256",
          "name": "tokenId",
          "type": "uint256"
        }
      ],
      "name": "safeTransferFrom",
      "outputs": [],
      "stateMutability": "nonpayable",
      "type": "function"
    },
    {
      "inputs": [
        {
          "internalType": "address",
          "name": "from",
          "type": "address"
        },
        {
          "internalType": "address",
          "name": "to",
          "type": "address"
        },
        {
          "internalType": "uint256",
          "name": "tokenId",
          "type": "uint256"
        },
        {
          "internalType": "bytes",
          "name": "data",
          "type": "bytes"
        }
      ],
      "name": "safeTransferFrom",
      "outputs": [],
      "stateMutability": "nonpayable",
      "type": "function"
    },
    {
      "inputs": [
        {
          "internalType": "address",
          "name": "operator",
          "type": "address"
        },
        {
          "internalType": "bool",
          "name": "approved",
          "type": "bool"
        }
      ],
      "name": "setApprovalForAll",
      "outputs": [],
      "stateMutability": "nonpayable",
      "type": "function"
    },
    {
      "inputs": [
        {
          "internalType": "bytes4",
          "name": "interfaceId",
          "type": "bytes4"
        }
      ],
      "name": "supportsInterface",
      "outputs": [
        {
          "internalType": "bool",
          "name": "",
          "type": "bool"
        }
      ],
      "stateMutability": "view",
      "type": "function"
    },
    {
      "inputs": [],
      "name": "symbol",
      "outputs": [
        {
          "internalType": "string",
          "name": "",
          "type": "string"
        }
      ],
      "stateMutability": "view",
      "type": "function"
    },
    {
      "inputs": [
        {
          "internalType": "uint256",
          "name": "tokenId",
          "type": "uint256"
        }
      ],
      "name": "tokenURI",
      "outputs": [
        {
          "internalType": "string",
          "name": "",
          "type": "string"
        }
      ],
      "stateMutability": "view",
      "type": "function"
    },
    {
      "inputs": [],
      "name": "totalSupply",
      "outputs": [
        {
          "internalType": "uint256",
          "name": "",
          "type": "uint256"
        }
      ],
      "stateMutability": "view",
      "type": "function"
    },
    {
      "inputs": [
        {
          "internalType": "address",
          "name": "from",
          "type": "address"
        },
        {
          "internalType": "address",
          "name": "to",
          "type": "address"
        },
        {
          "internalType": "uint256",
          "name": "tokenId",
          "type": "uint256"
        }
      ],
      "name": "transferFrom",
      "outputs": [],
      "stateMutability": "nonpayable",
      "type": "function"
    },
    {
      "inputs": [],
      "name": "withdraw",
      "outputs": [],
      "stateMutability": "nonpayable",
      "type": "function"
    }
  ],
  "bytecode": "0x60806040523480156200001157600080fd5b50604051620036ac380380620036ac83398181016040528101906200003791906200023b565b818181600090816200004a91906200050b565b5080600190816200005c91906200050b565b50505033600860006101000a81548173ffffffffffffffffffffffffffffffffffffffff021916908373ffffffffffffffffffffffffffffffffffffffff1602179055505050620005f2565b6000604051905090565b600080fd5b600080fd5b600080fd5b600080fd5b6000601f19601f8301169050919050565b7f4e487b7100000000000000000000000000000000000000000000000000000000600052604160045260246000fd5b6200011182620000c6565b810181811067ffffffffffffffff82111715620001335762000132620000d7565b5b80604052505050565b600062000148620000a8565b905062000156828262000106565b919050565b600067ffffffffffffffff821115620001795762000178620000d7565b5b6200018482620000c6565b9050602081019050919050565b60005b83811015620001b157808201518184015260208101905062000194565b60008484015250505050565b6000620001d4620001ce846200015b565b6200013c565b905082815260208101848484011115620001f357620001f2620000c1565b5b6200020084828562000191565b509392505050565b600082601f83011262000220576200021f620000bc565b5b815162000232848260208601620001bd565b91505092915050565b60008060408385031215620002555762000254620000b2565b5b600083015167ffffffffffffffff811115620002765762000275620000b7565b5b620002848582860162000208565b925050602083015167ffffffffffffffff811115620002a857620002a7620000b7565b5b620002b68582860162000208565b9150509250929050565b600081519050919050565b7f4e487b7100000000000000000000000000000000000000000000000000000000600052602260045260246000fd5b600060028204905060018216806200031357607f821691505b602082108103620003295762000328620002cb565b5b50919050565b60008190508160005260206000209050919050565b60006020601f8301049050919050565b600082821b905092915050565b600060088302620003937fffffffffffffffffffffffffffffffffffffffffffffffffffffffffffffffff8262000354565b6200039f868362000354565b95508019841693508086168417925050509392505050565b6000819050919050565b6000819050919050565b6000620003ec620003e6620003e084620003b7565b620003c1565b620003b7565b9050919050565b6000819050919050565b6200040883620003cb565b620004206200041782620003f3565b84845462000361565b825550505050565b600090565b6200043762000428565b62000444818484620003fd565b505050565b5b818110156200046c57620004606000826200042d565b6001810190506200044a565b5050565b601f821115620004bb5762000485816200032f565b620004908462000344565b81016020851015620004a0578190505b620004b8620004af8562000344565b83018262000449565b50505b505050565b600082821c905092915050565b6000620004e060001984600802620004c0565b1980831691505092915050565b6000620004fb8383620004cd565b9150826002028217905092915050565b6200051682620002c0565b67ffffffffffffffff811115620005325762000531620000d7565b5b6200053e8254620002fa565b6200054b82828562000470565b600060209050601f8311600181146200058357600084156200056e578287015190505b6200057a8582620004ed565b865550620005ea565b601f19841662000593866200032f565b60005b82811015620005bd5784890151825560018201915060208501945060208101905062000596565b86831015620005dd5784890151620005d9601f891682620004cd565b8355505b6001600288020188555050505b505050505050565b6130aa80620006026000396000f3fe60806040526004361061012a5760003560e01c80634a878dfa116100ab578063a0712d681161006f578063a0712d68146103f2578063a22cb4651461040e578063b88d4fde14610437578063c87b56dd14610460578063d5abeb011461049d578063e985e9c5146104c85761012a565b80634a878dfa146102f95780636352211e1461032257806370a082311461035f5780638da5cb5b1461039c57806395d89b41146103c75761012a565b806318160ddd116100f257806318160ddd146102285780631a7a98e21461025357806323b872dd146102905780633ccfd60b146102b957806342842e0e146102d05761012a565b806301ffc9a71461012f57806306fdde031461016c578063081812fc14610197578063095ea7b3146101d457806312065fe0146101fd575b600080fd5b34801561013b57600080fd5b5061015660048036038101906101519190611e28565b610505565b6040516101639190611e70565b60405180910390f35b34801561017857600080fd5b506101816105e7565b60405161018e9190611f1b565b60405180910390f35b3480156101a357600080fd5b506101be60048036038101906101b99190611f73565b610679565b6040516101cb9190611fe1565b60405180910390f35b3480156101e057600080fd5b506101fb60048036038101906101f69190612028565b6106bf565b005b34801561020957600080fd5b506102126107d6565b60405161021f9190612077565b60405180910390f35b34801561023457600080fd5b5061023d6107de565b60405161024a9190612077565b60405180910390f35b34801561025f57600080fd5b5061027a60048036038101906102759190611f73565b6107e4565b604051610287919061214a565b60405180910390f35b34801561029c57600080fd5b506102b760048036038101906102b2919061216c565b6108c8565b005b3480156102c557600080fd5b506102ce610928565b005b3480156102dc57600080fd5b506102f760048036038101906102f2919061216c565b610a53565b005b34801561030557600080fd5b50610320600480360381019061031b91906122f4565b610a73565b005b34801561032e57600080fd5b5061034960048036038101906103449190611f73565b610b95565b6040516103569190611fe1565b60405180910390f35b34801561036b57600080fd5b5061038660048036038101906103819190612350565b610c1b565b6040516103939190612077565b60405180910390f35b3480156103a857600080fd5b506103b1610cd2565b6040516103be9190611fe1565b60405180910390f35b3480156103d357600080fd5b506103dc610cf8565b6040516103e99190611f1b565b60405180910390f35b61040c60048036038101906104079190611f73565b610d8a565b005b34801561041a57600080fd5b50610435600480360381019061043091906123a9565b610e51565b005b34801561044357600080fd5b5061045e6004803603810190610459919061248a565b610e67565b005b34801561046c57600080fd5b5061048760048036038101906104829190611f73565b610ec9565b6040516104949190611f1b565b60405180910390f35b3480156104a957600080fd5b506104b2610f31565b6040516104bf9190612077565b60405180910390f35b3480156104d457600080fd5b506104ef60048036038101906104ea919061250d565b610f37565b6040516104fc9190611e70565b60405180910390f35b60007f80ac58cd000000000000000000000000000000000000000000000000000000007bffffffffffffffffffffffffffffffffffffffffffffffffffffffff1916827bffffffffffffffffffffffffffffffffffffffffffffffffffffffff191614806105d057507f5b5e139f000000000000000000000000000000000000000000000000000000007bffffffffffffffffffffffffffffffffffffffffffffffffffffffff1916827bffffffffffffffffffffffffffffffffffffffffffffffffffffffff1916145b806105e057506105df82610fcb565b5b9050919050565b6060600080546105f69061257c565b80601f01602080910402602001604051908101604052809291908181526020018280546106229061257c565b801561066f5780601f106106445761010080835404028352916020019161066f565b820191906000526020600020905b81548152906001019060200180831161065257829003601f168201915b5050505050905090565b600061068482611035565b6004600083815260200190815260200160002060009054906101000a900473ffffffffffffffffffffffffffffffffffffffff169050919050565b60006106ca82610b95565b90508073ffffffffffffffffffffffffffffffffffffffff168373ffffffffffffffffffffffffffffffffffffffff160361073a576040517f08c379a00000000000000000000000000000000000000000000000000000000081526004016107319061261f565b60405180910390fd5b8073ffffffffffffffffffffffffffffffffffffffff16610759611080565b73ffffffffffffffffffffffffffffffffffffffff161480610788575061078781610782611080565b610f37565b5b6107c7576040517f08c379a00000000000000000000000000000000000000000000000000000000081526004016107be906126b1565b60405180910390fd5b6107d18383611088565b505050565b600047905090565b60065481565b6107ec611d99565b6009600083815260200190815260200160002060405180606001604052908160008201805461081a9061257c565b80601f01602080910402602001604051908101604052809291908181526020018280546108469061257c565b80156108935780601f1061086857610100808354040283529160200191610893565b820191906000526020600020905b81548152906001019060200180831161087657829003601f168201915b50505050508152602001600182015481526020016002820160009054906101000a900460ff1615151515815250509050919050565b6108d96108d3611080565b82611141565b610918576040517f08c379a000000000000000000000000000000000000000000000000000000000815260040161090f90612743565b60405180910390fd5b6109238383836111d6565b505050565b600860009054906101000a900473ffffffffffffffffffffffffffffffffffffffff1673ffffffffffffffffffffffffffffffffffffffff163373ffffffffffffffffffffffffffffffffffffffff16146109b8576040517f08c379a00000000000000000000000000000000000000000000000000000000081526004016109af906127af565b60405180910390fd5b6000600860009054906101000a900473ffffffffffffffffffffffffffffffffffffffff1673ffffffffffffffffffffffffffffffffffffffff1647604051610a0090612800565b60006040518083038185875af1925050503d8060008114610a3d576040519150601f19603f3d011682016040523d82523d6000602084013e610a42565b606091505b5050905080610a5057600080fd5b50565b610a6e83838360405180602001604052806000815250610e67565b505050565b600860009054906101000a900473ffffffffffffffffffffffffffffffffffffffff1673ffffffffffffffffffffffffffffffffffffffff163373ffffffffffffffffffffffffffffffffffffffff1614610b03576040517f08c379a0000000000000000000000000000000000000000000000000000000008152600401610afa906127af565b60405180910390fd5b60076000815480929190610b1690612844565b91905055506040518060600160405280838152602001828152602001600015158152506009600060075481526020019081526020016000206000820151816000019081610b639190612a38565b506020820151816001015560408201518160020160006101000a81548160ff0219169083151502179055509050505050565b600080610ba1836114cf565b9050600073ffffffffffffffffffffffffffffffffffffffff168173ffffffffffffffffffffffffffffffffffffffff1603610c12576040517f08c379a0000000000000000000000000000000000000000000000000000000008152600401610c0990612b56565b60405180910390fd5b80915050919050565b60008073ffffffffffffffffffffffffffffffffffffffff168273ffffffffffffffffffffffffffffffffffffffff1603610c8b576040517f08c379a0000000000000000000000000000000000000000000000000000000008152600401610c8290612be8565b60405180910390fd5b600360008373ffffffffffffffffffffffffffffffffffffffff1673ffffffffffffffffffffffffffffffffffffffff168152602001908152602001600020549050919050565b600860009054906101000a900473ffffffffffffffffffffffffffffffffffffffff1681565b606060018054610d079061257c565b80601f0160208091040260200160405190810160405280929190818152602001828054610d339061257c565b8015610d805780601f10610d5557610100808354040283529160200191610d80565b820191906000526020600020905b815481529060010190602001808311610d6357829003601f168201915b5050505050905090565b60008103610d9757600080fd5b600754811115610da657600080fd5b600015156009600083815260200190815260200160002060020160009054906101000a900460ff16151514610dda57600080fd5b6009600082815260200190815260200160002060010154341015610dfd57600080fd5b60016009600083815260200190815260200160002060020160006101000a81548160ff02191690831515021790555060066000815480929190610e3f90612844565b9190505550610e4e338261150c565b50565b610e63610e5c611080565b838361152a565b5050565b610e78610e72611080565b83611141565b610eb7576040517f08c379a0000000000000000000000000000000000000000000000000000000008152600401610eae90612743565b60405180910390fd5b610ec384848484611696565b50505050565b6060610ed482611035565b6000610ede6116f2565b90506000815111610efe5760405180602001604052806000815250610f29565b80610f0884611709565b604051602001610f19929190612c44565b6040516020818303038152906040525b915050919050565b60075481565b6000600560008473ffffffffffffffffffffffffffffffffffffffff1673ffffffffffffffffffffffffffffffffffffffff16815260200190815260200160002060008373ffffffffffffffffffffffffffffffffffffffff1673ffffffffffffffffffffffffffffffffffffffff16815260200190815260200160002060009054906101000a900460ff16905092915050565b60007f01ffc9a7000000000000000000000000000000000000000000000000000000007bffffffffffffffffffffffffffffffffffffffffffffffffffffffff1916827bffffffffffffffffffffffffffffffffffffffffffffffffffffffff1916149050919050565b61103e816117d7565b61107d576040517f08c379a000000000000000000000000000000000000000000000000000000000815260040161107490612b56565b60405180910390fd5b50565b600033905090565b816004600083815260200190815260200160002060006101000a81548173ffffffffffffffffffffffffffffffffffffffff021916908373ffffffffffffffffffffffffffffffffffffffff160217905550808273ffffffffffffffffffffffffffffffffffffffff166110fb83610b95565b73ffffffffffffffffffffffffffffffffffffffff167f8c5be1e5ebec7d5bd14f71427d1e84f3dd0314c0f7b2291e5b200ac8c7c3b92560405160405180910390a45050565b60008061114d83610b95565b90508073ffffffffffffffffffffffffffffffffffffffff168473ffffffffffffffffffffffffffffffffffffffff16148061118f575061118e8185610f37565b5b806111cd57508373ffffffffffffffffffffffffffffffffffffffff166111b584610679565b73ffffffffffffffffffffffffffffffffffffffff16145b91505092915050565b8273ffffffffffffffffffffffffffffffffffffffff166111f682610b95565b73ffffffffffffffffffffffffffffffffffffffff161461124c576040517f08c379a000000000000000000000000000000000000000000000000000000000815260040161124390612cda565b60405180910390fd5b600073ffffffffffffffffffffffffffffffffffffffff168273ffffffffffffffffffffffffffffffffffffffff16036112bb576040517f08c379a00000000000000000000000000000000000000000000000000000000081526004016112b290612d6c565b60405180910390fd5b6112c88383836001611818565b8273ffffffffffffffffffffffffffffffffffffffff166112e882610b95565b73ffffffffffffffffffffffffffffffffffffffff161461133e576040517f08c379a000000000000000000000000000000000000000000000000000000000815260040161133590612cda565b60405180910390fd5b6004600082815260200190815260200160002060006101000a81549073ffffffffffffffffffffffffffffffffffffffff02191690556001600360008573ffffffffffffffffffffffffffffffffffffffff1673ffffffffffffffffffffffffffffffffffffffff168152602001908152602001600020600082825403925050819055506001600360008473ffffffffffffffffffffffffffffffffffffffff1673ffffffffffffffffffffffffffffffffffffffff16815260200190815260200160002060008282540192505081905550816002600083815260200190815260200160002060006101000a81548173ffffffffffffffffffffffffffffffffffffffff021916908373ffffffffffffffffffffffffffffffffffffffff160217905550808273ffffffffffffffffffffffffffffffffffffffff168473ffffffffffffffffffffffffffffffffffffffff167fddf252ad1be2c89b69c2b068fc378daa952ba7f163c4a11628f55a4df523b3ef60405160405180910390a46114ca838383600161181e565b505050565b60006002600083815260200190815260200160002060009054906101000a900473ffffffffffffffffffffffffffffffffffffffff169050919050565b611526828260405180602001604052806000815250611824565b5050565b8173ffffffffffffffffffffffffffffffffffffffff168373ffffffffffffffffffffffffffffffffffffffff1603611598576040517f08c379a000000000000000000000000000000000000000000000000000000000815260040161158f90612dd8565b60405180910390fd5b80600560008573ffffffffffffffffffffffffffffffffffffffff1673ffffffffffffffffffffffffffffffffffffffff16815260200190815260200160002060008473ffffffffffffffffffffffffffffffffffffffff1673ffffffffffffffffffffffffffffffffffffffff16815260200190815260200160002060006101000a81548160ff0219169083151502179055508173ffffffffffffffffffffffffffffffffffffffff168373ffffffffffffffffffffffffffffffffffffffff167f17307eab39ab6107e8899845ad3d59bd9653f200f220920489ca2b5937696c31836040516116899190611e70565b60405180910390a3505050565b6116a18484846111d6565b6116ad8484848461187f565b6116ec576040517f08c379a00000000000000000000000000000000000000000000000000000000081526004016116e390612e6a565b60405180910390fd5b50505050565b606060405180602001604052806000815250905090565b60606000600161171884611a06565b01905060008167ffffffffffffffff811115611737576117366121c9565b5b6040519080825280601f01601f1916602001820160405280156117695781602001600182028036833780820191505090505b509050600082602001820190505b6001156117cc578080600190039150507f3031323334353637383961626364656600000000000000000000000000000000600a86061a8153600a85816117c0576117bf612e8a565b5b04945060008503611777575b819350505050919050565b60008073ffffffffffffffffffffffffffffffffffffffff166117f9836114cf565b73ffffffffffffffffffffffffffffffffffffffff1614159050919050565b50505050565b50505050565b61182e8383611b59565b61183b600084848461187f565b61187a576040517f08c379a000000000000000000000000000000000000000000000000000000000815260040161187190612e6a565b60405180910390fd5b505050565b60006118a08473ffffffffffffffffffffffffffffffffffffffff16611d76565b156119f9578373ffffffffffffffffffffffffffffffffffffffff1663150b7a026118c9611080565b8786866040518563ffffffff1660e01b81526004016118eb9493929190612f0e565b6020604051808303816000875af192505050801561192757506040513d601f19601f820116820180604052508101906119249190612f6f565b60015b6119a9573d8060008114611957576040519150601f19603f3d011682016040523d82523d6000602084013e61195c565b606091505b5060008151036119a1576040517f08c379a000000000000000000000000000000000000000000000000000000000815260040161199890612e6a565b60405180910390fd5b805181602001fd5b63150b7a0260e01b7bffffffffffffffffffffffffffffffffffffffffffffffffffffffff1916817bffffffffffffffffffffffffffffffffffffffffffffffffffffffff1916149150506119fe565b600190505b949350505050565b600080600090507a184f03e93ff9f4daa797ed6e38ed64bf6a1f0100000000000000008310611a64577a184f03e93ff9f4daa797ed6e38ed64bf6a1f0100000000000000008381611a5a57611a59612e8a565b5b0492506040810190505b6d04ee2d6d415b85acef81000000008310611aa1576d04ee2d6d415b85acef81000000008381611a9757611a96612e8a565b5b0492506020810190505b662386f26fc100008310611ad057662386f26fc100008381611ac657611ac5612e8a565b5b0492506010810190505b6305f5e1008310611af9576305f5e1008381611aef57611aee612e8a565b5b0492506008810190505b6127108310611b1e576127108381611b1457611b13612e8a565b5b0492506004810190505b60648310611b415760648381611b3757611b36612e8a565b5b0492506002810190505b600a8310611b50576001810190505b80915050919050565b600073ffffffffffffffffffffffffffffffffffffffff168273ffffffffffffffffffffffffffffffffffffffff1603611bc8576040517f08c379a0000000000000000000000000000000000000000000000000000000008152600401611bbf90612fe8565b60405180910390fd5b611bd1816117d7565b15611c11576040517f08c379a0000000000000000000000000000000000000000000000000000000008152600401611c0890613054565b60405180910390fd5b611c1f600083836001611818565b611c28816117d7565b15611c68576040517f08c379a0000000000000000000000000000000000000000000000000000000008152600401611c5f90613054565b60405180910390fd5b6001600360008473ffffffffffffffffffffffffffffffffffffffff1673ffffffffffffffffffffffffffffffffffffffff16815260200190815260200160002060008282540192505081905550816002600083815260200190815260200160002060006101000a81548173ffffffffffffffffffffffffffffffffffffffff021916908373ffffffffffffffffffffffffffffffffffffffff160217905550808273ffffffffffffffffffffffffffffffffffffffff16600073ffffffffffffffffffffffffffffffffffffffff167fddf252ad1be2c89b69c2b068fc378daa952ba7f163c4a11628f55a4df523b3ef60405160405180910390a4611d7260008383600161181e565b5050565b6000808273ffffffffffffffffffffffffffffffffffffffff163b119050919050565b604051806060016040528060608152602001600081526020016000151581525090565b6000604051905090565b600080fd5b600080fd5b60007fffffffff0000000000000000000000000000000000000000000000000000000082169050919050565b611e0581611dd0565b8114611e1057600080fd5b50565b600081359050611e2281611dfc565b92915050565b600060208284031215611e3e57611e3d611dc6565b5b6000611e4c84828501611e13565b91505092915050565b60008115159050919050565b611e6a81611e55565b82525050565b6000602082019050611e856000830184611e61565b92915050565b600081519050919050565b600082825260208201905092915050565b60005b83811015611ec5578082015181840152602081019050611eaa565b60008484015250505050565b6000601f19601f8301169050919050565b6000611eed82611e8b565b611ef78185611e96565b9350611f07818560208601611ea7565b611f1081611ed1565b840191505092915050565b60006020820190508181036000830152611f358184611ee2565b905092915050565b6000819050919050565b611f5081611f3d565b8114611f5b57600080fd5b50565b600081359050611f6d81611f47565b92915050565b600060208284031215611f8957611f88611dc6565b5b6000611f9784828501611f5e565b91505092915050565b600073ffffffffffffffffffffffffffffffffffffffff82169050919050565b6000611fcb82611fa0565b9050919050565b611fdb81611fc0565b82525050565b6000602082019050611ff66000830184611fd2565b92915050565b61200581611fc0565b811461201057600080fd5b50565b60008135905061202281611ffc565b92915050565b6000806040838503121561203f5761203e611dc6565b5b600061204d85828601612013565b925050602061205e85828601611f5e565b9150509250929050565b61207181611f3d565b82525050565b600060208201905061208c6000830184612068565b92915050565b600082825260208201905092915050565b60006120ae82611e8b565b6120b88185612092565b93506120c8818560208601611ea7565b6120d181611ed1565b840191505092915050565b6120e581611f3d565b82525050565b6120f481611e55565b82525050565b6000606083016000830151848203600086015261211782826120a3565b915050602083015161212c60208601826120dc565b50604083015161213f60408601826120eb565b508091505092915050565b6000602082019050818103600083015261216481846120fa565b905092915050565b60008060006060848603121561218557612184611dc6565b5b600061219386828701612013565b93505060206121a486828701612013565b92505060406121b586828701611f5e565b9150509250925092565b600080fd5b600080fd5b7f4e487b7100000000000000000000000000000000000000000000000000000000600052604160045260246000fd5b61220182611ed1565b810181811067ffffffffffffffff821117156122205761221f6121c9565b5b80604052505050565b6000612233611dbc565b905061223f82826121f8565b919050565b600067ffffffffffffffff82111561225f5761225e6121c9565b5b61226882611ed1565b9050602081019050919050565b82818337600083830152505050565b600061229761229284612244565b612229565b9050828152602081018484840111156122b3576122b26121c4565b5b6122be848285612275565b509392505050565b600082601f8301126122db576122da6121bf565b5b81356122eb848260208601612284565b91505092915050565b6000806040838503121561230b5761230a611dc6565b5b600083013567ffffffffffffffff81111561232957612328611dcb565b5b612335858286016122c6565b925050602061234685828601611f5e565b9150509250929050565b60006020828403121561236657612365611dc6565b5b600061237484828501612013565b91505092915050565b61238681611e55565b811461239157600080fd5b50565b6000813590506123a38161237d565b92915050565b600080604083850312156123c0576123bf611dc6565b5b60006123ce85828601612013565b92505060206123df85828601612394565b9150509250929050565b600067ffffffffffffffff821115612404576124036121c9565b5b61240d82611ed1565b9050602081019050919050565b600061242d612428846123e9565b612229565b905082815260208101848484011115612449576124486121c4565b5b612454848285612275565b509392505050565b600082601f830112612471576124706121bf565b5b813561248184826020860161241a565b91505092915050565b600080600080608085870312156124a4576124a3611dc6565b5b60006124b287828801612013565b94505060206124c387828801612013565b93505060406124d487828801611f5e565b925050606085013567ffffffffffffffff8111156124f5576124f4611dcb565b5b6125018782880161245c565b91505092959194509250565b6000806040838503121561252457612523611dc6565b5b600061253285828601612013565b925050602061254385828601612013565b9150509250929050565b7f4e487b7100000000000000000000000000000000000000000000000000000000600052602260045260246000fd5b6000600282049050600182168061259457607f821691505b6020821081036125a7576125a661254d565b5b50919050565b7f4552433732313a20617070726f76616c20746f2063757272656e74206f776e6560008201527f7200000000000000000000000000000000000000000000000000000000000000602082015250565b6000612609602183611e96565b9150612614826125ad565b604082019050919050565b60006020820190508181036000830152612638816125fc565b9050919050565b7f4552433732313a20617070726f76652063616c6c6572206973206e6f7420746f60008201527f6b656e206f776e6572206f7220617070726f76656420666f7220616c6c000000602082015250565b600061269b603d83611e96565b91506126a68261263f565b604082019050919050565b600060208201905081810360008301526126ca8161268e565b9050919050565b7f4552433732313a2063616c6c6572206973206e6f7420746f6b656e206f776e6560008201527f72206f7220617070726f76656400000000000000000000000000000000000000602082015250565b600061272d602d83611e96565b9150612738826126d1565b604082019050919050565b6000602082019050818103600083015261275c81612720565b9050919050565b7f6d7573742062652061206f776e65720000000000000000000000000000000000600082015250565b6000612799600f83611e96565b91506127a482612763565b602082019050919050565b600060208201905081810360008301526127c88161278c565b9050919050565b600081905092915050565b50565b60006127ea6000836127cf565b91506127f5826127da565b600082019050919050565b600061280b826127dd565b9150819050919050565b7f4e487b7100000000000000000000000000000000000000000000000000000000600052601160045260246000fd5b600061284f82611f3d565b91507fffffffffffffffffffffffffffffffffffffffffffffffffffffffffffffffff820361288157612880612815565b5b600182019050919050565b60008190508160005260206000209050919050565b60006020601f8301049050919050565b600082821b905092915050565b6000600883026128ee7fffffffffffffffffffffffffffffffffffffffffffffffffffffffffffffffff826128b1565b6128f886836128b1565b95508019841693508086168417925050509392505050565b6000819050919050565b600061293561293061292b84611f3d565b612910565b611f3d565b9050919050565b6000819050919050565b61294f8361291a565b61296361295b8261293c565b8484546128be565b825550505050565b600090565b61297861296b565b612983818484612946565b505050565b5b818110156129a75761299c600082612970565b600181019050612989565b5050565b601f8211156129ec576129bd8161288c565b6129c6846128a1565b810160208510156129d5578190505b6129e96129e1856128a1565b830182612988565b50505b505050565b600082821c905092915050565b6000612a0f600019846008026129f1565b1980831691505092915050565b6000612a2883836129fe565b9150826002028217905092915050565b612a4182611e8b565b67ffffffffffffffff811115612a5a57612a596121c9565b5b612a64825461257c565b612a6f8282856129ab565b600060209050601f831160018114612aa25760008415612a90578287015190505b612a9a8582612a1c565b865550612b02565b601f198416612ab08661288c565b60005b82811015612ad857848901518255600182019150602085019450602081019050612ab3565b86831015612af55784890151612af1601f8916826129fe565b8355505b6001600288020188555050505b505050505050565b7f4552433732313a20696e76616c696420746f6b656e2049440000000000000000600082015250565b6000612b40601883611e96565b9150612b4b82612b0a565b602082019050919050565b60006020820190508181036000830152612b6f81612b33565b9050919050565b7f4552433732313a2061646472657373207a65726f206973206e6f74206120766160008201527f6c6964206f776e65720000000000000000000000000000000000000000000000602082015250565b6000612bd2602983611e96565b9150612bdd82612b76565b604082019050919050565b60006020820190508181036000830152612c0181612bc5565b9050919050565b600081905092915050565b6000612c1e82611e8b565b612c288185612c08565b9350612c38818560208601611ea7565b80840191505092915050565b6000612c508285612c13565b9150612c5c8284612c13565b91508190509392505050565b7f4552433732313a207472616e736665722066726f6d20696e636f72726563742060008201527f6f776e6572000000000000000000000000000000000000000000000000000000602082015250565b6000612cc4602583611e96565b9150612ccf82612c68565b604082019050919050565b60006020820190508181036000830152612cf381612cb7565b9050919050565b7f4552433732313a207472616e7366657220746f20746865207a65726f2061646460008201527f7265737300000000000000000000000000000000000000000000000000000000602082015250565b6000612d56602483611e96565b9150612d6182612cfa565b604082019050919050565b60006020820190508181036000830152612d8581612d49565b9050919050565b7f4552433732313a20617070726f766520746f2063616c6c657200000000000000600082015250565b6000612dc2601983611e96565b9150612dcd82612d8c565b602082019050919050565b60006020820190508181036000830152612df181612db5565b9050919050565b7f4552433732313a207472616e7366657220746f206e6f6e20455243373231526560008201527f63656976657220696d706c656d656e7465720000000000000000000000000000602082015250565b6000612e54603283611e96565b9150612e5f82612df8565b604082019050919050565b60006020820190508181036000830152612e8381612e47565b9050919050565b7f4e487b7100000000000000000000000000000000000000000000000000000000600052601260045260246000fd5b600081519050919050565b600082825260208201905092915050565b6000612ee082612eb9565b612eea8185612ec4565b9350612efa818560208601611ea7565b612f0381611ed1565b840191505092915050565b6000608082019050612f236000830187611fd2565b612f306020830186611fd2565b612f3d6040830185612068565b8181036060830152612f4f8184612ed5565b905095945050505050565b600081519050612f6981611dfc565b92915050565b600060208284031215612f8557612f84611dc6565b5b6000612f9384828501612f5a565b91505092915050565b7f4552433732313a206d696e7420746f20746865207a65726f2061646472657373600082015250565b6000612fd2602083611e96565b9150612fdd82612f9c565b602082019050919050565b6000602082019050818103600083015261300181612fc5565b9050919050565b7f4552433732313a20746f6b656e20616c7265616479206d696e74656400000000600082015250565b600061303e601c83611e96565b915061304982613008565b602082019050919050565b6000602082019050818103600083015261306d81613031565b905091905056fea2646970667358221220e546f940ec2e2c02d55a20f054e17f5383ab9f842df70f52277f5db81697d8a364736f6c63430008120033",
  "linkReferences": {},
  "deployedLinkReferences": {}
}